S01200004C65645365676D656E742E737265632A
S11300000C9434000C943E000C943E000C943E007E
S11300100C943E000C943E000C943E000C943E0064
S11300200C943E000C943E000C943E000C943E0054
S11300300C943E000C946C000C943E000C943E0016
S11300400C943E000C943E000C943E000C943E0034
S11300500C943E000C943E000C943E000C943E0024
S11300600C943E000C943E0011241FBECFEFD8E048
S1130070DEBFCDBF0E9465000C94F1000C9400001B
S1130080FC01408121E030E002C0220F331F6A9559
S1130090E2F7242B20830895FC01908121E030E0D5
S11300A002C0220F331F6A95E2F72095292320838B
S11300B00895FC01408121E030E002C0220F331F8B
S11300C06A95E2F7242B208308950E94760060E16C
S11300D08DE00E948600FFCF1F920F920FB60F9201
S11300E011240F900FBE0F901F90189564E08AE2C0
S11300F090E00E94400067E08AE290E00E944000A5
S113010060E084E290E00E94400008951F93CF9342
S1130110DF93182FD62F64E08BE290E00E944C000E
S113012067E08BE290E00E944C0060E085E290E0A2
S11301300E944C0085E08A95F1F70000C8E010FFAA
S113014006C060E085E290E00E94590005C060E0CE
S113015085E290E00E944C0085E08A95F1F700006A
S113016067E08BE290E00E94590085E08A95F1F700
S1130170000067E08BE290E00E944C001695C150AD
S1130180F1F6C8E0D0FF06C060E085E290E00E948E
S1130190590005C060E085E290E00E944C0085E0D3
S11301A08A95F1F7000067E08BE290E00E94590025
S11301B085E08A95F1F7000067E08BE290E00E9409
S11301C04C00D695C150F1F664E08BE290E00E94B9
S11301D0590085E08A95F1F70000DF91CF911F91D6
S10901E00895F894FFCF1E
S9030000FC
