S01500004C65642D696E746572727570742E73726563E0
S11300000C9434000C9446000C9446000C94460066
S11300100C9446000C9446000C9446000C94460044
S11300200C9446000C9446000C9446000C94460034
S11300300C9446000C947A000C9446000C944600F0
S11300400C9446000C9446000C9446000C94460014
S11300500C9446000C9446000C9446000C94460004
S11300600C9446000C94460011241FBECFEFD8E038
S1130070DEBFCDBF21E0A0E0B1E001C01D92A230FF
S1130080B207E1F70E9461000C94A1000C940000F7
S1130090FC01408121E030E002C0220F331F6A9549
S11300A0E2F7242B20830895FC01908121E030E0C5
S11300B002C0220F331F6A95E2F72095292320837B
S11300C0089565E084E290E00E94480065E085E2DE
S11300D090E00E945400E1E8F0E080818B7F80830F
S11300E0808183608083EFE6F0E08081816080839B
S11300F07894FFCF1F920F920FB60F9211248F9313
S11301009F9380910001909101018430910528F022
S113011010920101109200010DC00196909301010B
S11301208093000195B180E2892785B995B180E17A
S1130130892785B99F918F910F900FBE0F901F90C3
S10901401895F894FFCFAE
S9030000FC
