S00B00006C65642E73726563E4
S11300000C9434000C943E000C943E000C943E007E
S11300100C943E000C943E000C943E000C943E0064
S11300200C943E000C943E000C943E000C943E0054
S11300300C943E000C943E000C943E000C943E0044
S11300400C943E000C943E000C943E000C943E0034
S11300500C943E000C943E000C943E000C943E0024
S11300600C943E000C943E0011241FBECFEFD8E048
S1130070DEBFCDBF0E9440000C9465000C940000CC
S1130080259A2D9890E22FEF39E688E121503040EF
S11300908040E1F700C00000259A2FEF39E688E19F
S11300A0215030408040E1F700C00000259A2FEF36
S11300B039E688E1215030408040E1F700C000007B
S11100C0259A85B1892785B9DECFF894FFCF44
S9030000FC
