S01000006770696F5F4C45442E7372656331
S11300000C9434000C943E000C943E000C943E007E
S11300100C943E000C943E000C943E000C943E0064
S11300200C943E000C943E000C943E000C943E0054
S11300300C943E000C943E000C943E000C943E0044
S11300400C943E000C943E000C943E000C943E0034
S11300500C943E000C943E000C943E000C943E0024
S11300600C943E000C943E0011241FBECFEFD8E048
S1130070DEBFCDBF0E9474000C94B0000C9400004D
S1130080FC01408121E030E002C0220F331F6A9559
S1130090E2F7242B20830895FC01808121E030E0E5
S11300A002C0220F331F6A95E2F7922F909589239D
S11300B080838181282B21830895FC01908121E094
S11300C030E002C0220F331F6A95E2F720952923FE
S11300D020830895FC01808190E002C09595879566
S11300E06A95E2F78170089565E084E290E00E94E9
S11300F0400065E085E290E00E945D0065E087E2F3
S113010090E00E94400065E088E290E00E945D007B
S113011060E08BE290E00E946A0060E08AE290E096
S11301200E944C0090E24899FECF2FEF39E688E117
S1130130215030408040E1F700C0000085B189279C
S113014085B988B1892788B92FEF39E688E121502C
S113015030408040E1F700C00000489BFECFE3CF71
S1070160F894FFCF3D
S9030000FC
