:100000000C9434000C943E000C943E000C943E0082
:100010000C943E000C943E000C943E000C943E0068
:100020000C943E000C943E000C943E000C943E0058
:100030000C943E000C943E000C943E000C943E0048
:100040000C943E000C943E000C943E000C943E0038
:100050000C943E000C943E000C943E000C943E0028
:100060000C943E000C943E0011241FBECFEFD8E04C
:10007000DEBFCDBF0E9459000C9493000C94000089
:10008000FC01408121E030E002C0220F331F6A955D
:10009000E2F7242B20830895FC01908121E030E0D9
:1000A00002C0220F331F6A95E2F72095292320838F
:1000B000089565E084E290E00E94400065E085E2FA
:1000C00090E00E944C0065E087E290E00E944000D2
:1000D00065E088E290E00E944C0060E08BE290E0F6
:1000E0000E944C0060E08AE290E00E94400090E2B2
:1000F0002D9A459A2FEF39E688E121503040804013
:10010000E1F700C0000085B1892785B988B189274A
:1001100088B92FEF39E688E1215030408040E1F77F
:0A01200000C00000E5CFF894FFCF07
:00000001FF
