S00C00006C6564732E7372656370
S11300000C9434000C943E000C943E000C943E007E
S11300100C943E000C943E000C943E000C943E0064
S11300200C943E000C943E000C943E000C943E0054
S11300300C943E000C943E000C943E000C943E0044
S11300400C943E000C943E000C943E000C943E0034
S11300500C943E000C943E000C943E000C943E0024
S11300600C943E000C943E0011241FBECFEFD8E048
S1130070DEBFCDBF0E9440000C9465000C940000CC
S1130080259A2D983D9A459898B180E2892788B998
S11300905098589A90E22FEF39E688E12150304089
S11300A08040E1F700C0000085B1892785B988B197
S11300B0892788B94899EFCF85B1892785B988B14F
S11100C0892788B9489BFECFE6CFF894FFCF7E
S9030000FC
